{
  "contractName": "AircraftMaintenanceHistory",
  "abi": [
    {
      "inputs": [
        {
          "internalType": "address[]",
          "name": "_admins",
          "type": "address[]"
        }
      ],
      "stateMutability": "nonpayable",
      "type": "constructor"
    },
    {
      "anonymous": false,
      "inputs": [
        {
          "indexed": false,
          "internalType": "uint256",
          "name": "recordId",
          "type": "uint256"
        }
      ],
      "name": "RecordSaved",
      "type": "event"
    },
    {
      "inputs": [
        {
          "internalType": "uint256",
          "name": "",
          "type": "uint256"
        }
      ],
      "name": "admins",
      "outputs": [
        {
          "internalType": "address",
          "name": "",
          "type": "address"
        }
      ],
      "stateMutability": "view",
      "type": "function",
      "constant": true
    },
    {
      "inputs": [
        {
          "internalType": "uint256",
          "name": "",
          "type": "uint256"
        }
      ],
      "name": "maintenanceRecords",
      "outputs": [
        {
          "internalType": "uint256",
          "name": "id",
          "type": "uint256"
        },
        {
          "internalType": "string",
          "name": "contents",
          "type": "string"
        }
      ],
      "stateMutability": "view",
      "type": "function",
      "constant": true
    },
    {
      "inputs": [
        {
          "components": [
            {
              "internalType": "uint256",
              "name": "id",
              "type": "uint256"
            },
            {
              "internalType": "string",
              "name": "contents",
              "type": "string"
            }
          ],
          "internalType": "struct AircraftMaintenanceHistory.MaintenanceRecord[]",
          "name": "_records",
          "type": "tuple[]"
        }
      ],
      "name": "recordMaintenance",
      "outputs": [],
      "stateMutability": "nonpayable",
      "type": "function"
    },
    {
      "inputs": [
        {
          "internalType": "uint256",
          "name": "id",
          "type": "uint256"
        }
      ],
      "name": "getMaintenanceRecord",
      "outputs": [
        {
          "components": [
            {
              "internalType": "uint256",
              "name": "id",
              "type": "uint256"
            },
            {
              "internalType": "string",
              "name": "contents",
              "type": "string"
            }
          ],
          "internalType": "struct AircraftMaintenanceHistory.MaintenanceRecord",
          "name": "",
          "type": "tuple"
        }
      ],
      "stateMutability": "view",
      "type": "function",
      "constant": true
    }
  ],
  "bytecode": "0x60806040525f805534801562000013575f80fd5b50604051620012cf380380620012cf83398181016040528101906200003991906200033a565b6200004a816200005160201b60201c565b506200042d565b5f81511162000097576040517f08c379a00000000000000000000000000000000000000000000000000000000081526004016200008e906200040d565b60405180910390fd5b8060019080519060200190620000af929190620000b3565b5050565b828054828255905f5260205f209081019282156200012c579160200282015b828111156200012b578251825f6101000a81548173ffffffffffffffffffffffffffffffffffffffff021916908373ffffffffffffffffffffffffffffffffffffffff16021790555091602001919060010190620000d2565b5b5090506200013b91906200013f565b5090565b5b8082111562000158575f815f90555060010162000140565b5090565b5f604051905090565b5f80fd5b5f80fd5b5f80fd5b5f601f19601f8301169050919050565b7f4e487b71000000000000000000000000000000000000000000000000000000005f52604160045260245ffd5b620001b98262000171565b810181811067ffffffffffffffff82111715620001db57620001da62000181565b5b80604052505050565b5f620001ef6200015c565b9050620001fd8282620001ae565b919050565b5f67ffffffffffffffff8211156200021f576200021e62000181565b5b602082029050602081019050919050565b5f80fd5b5f73ffffffffffffffffffffffffffffffffffffffff82169050919050565b5f6200025f8262000234565b9050919050565b620002718162000253565b81146200027c575f80fd5b50565b5f815190506200028f8162000266565b92915050565b5f620002ab620002a58462000202565b620001e4565b90508083825260208201905060208402830185811115620002d157620002d062000230565b5b835b81811015620002fe5780620002e988826200027f565b845260208401935050602081019050620002d3565b5050509392505050565b5f82601f8301126200031f576200031e6200016d565b5b81516200033184826020860162000295565b91505092915050565b5f6020828403121562000352576200035162000165565b5b5f82015167ffffffffffffffff81111562000372576200037162000169565b5b620003808482850162000308565b91505092915050565b5f82825260208201905092915050565b7f4174206c65617374206f6e652061646d696e20616464726573732069732072655f8201527f7175697265640000000000000000000000000000000000000000000000000000602082015250565b5f620003f560268362000389565b9150620004028262000399565b604082019050919050565b5f6020820190508181035f8301526200042681620003e7565b9050919050565b610e94806200043b5f395ff3fe608060405234801561000f575f80fd5b506004361061004a575f3560e01c806314bfd6d01461004e578063188b3a471461007e5780632a9959b7146100ae578063dff9dcb3146100df575b5f80fd5b61006860048036038101906100639190610524565b6100fb565b604051610075919061058e565b60405180910390f35b61009860048036038101906100939190610524565b610136565b6040516100a5919061067a565b60405180910390f35b6100c860048036038101906100c39190610524565b610244565b6040516100d69291906106f1565b60405180910390f35b6100f960048036038101906100f4919061099e565b6102ea565b005b6001818154811061010a575f80fd5b905f5260205f20015f915054906101000a900473ffffffffffffffffffffffffffffffffffffffff1681565b61013e6104c7565b5f60025f8481526020019081526020015f206040518060400160405290815f820154815260200160018201805461017490610a12565b80601f01602080910402602001604051908101604052809291908181526020018280546101a090610a12565b80156101eb5780601f106101c2576101008083540402835291602001916101eb565b820191905f5260205f20905b8154815290600101906020018083116101ce57829003601f168201915b50505050508152505090505f815f01510361023b576040517f08c379a000000000000000000000000000000000000000000000000000000000815260040161023290610a8c565b60405180910390fd5b80915050919050565b6002602052805f5260405f205f91509050805f01549080600101805461026990610a12565b80601f016020809104026020016040519081016040528092919081815260200182805461029590610a12565b80156102e05780601f106102b7576101008083540402835291602001916102e0565b820191905f5260205f20905b8154815290600101906020018083116102c357829003601f168201915b5050505050905082565b6102f33361041f565b610332576040517f08c379a000000000000000000000000000000000000000000000000000000000815260040161032990610b1a565b60405180910390fd5b5f5b815181101561041b575f82828151811061035157610350610b38565b5b602002602001015190505f815f015190505f8103610384575f8081548092919061037a90610b92565b91905055505f5490505b6040518060400160405280828152602001836020015181525060025f8381526020019081526020015f205f820151815f015560208201518160010190816103cb9190610d76565b509050507f7df95953dab7d09a8576ba63e7074c67c729ed94ada9d01b7531d3924b25b30e816040516103fe9190610e45565b60405180910390a15050808061041390610b92565b915050610334565b5050565b5f805f90505b6001805490508110156104bd578273ffffffffffffffffffffffffffffffffffffffff166001828154811061045d5761045c610b38565b5b905f5260205f20015f9054906101000a900473ffffffffffffffffffffffffffffffffffffffff1673ffffffffffffffffffffffffffffffffffffffff16036104aa5760019150506104c2565b80806104b590610b92565b915050610425565b505f90505b919050565b60405180604001604052805f8152602001606081525090565b5f604051905090565b5f80fd5b5f80fd5b5f819050919050565b610503816104f1565b811461050d575f80fd5b50565b5f8135905061051e816104fa565b92915050565b5f60208284031215610539576105386104e9565b5b5f61054684828501610510565b91505092915050565b5f73ffffffffffffffffffffffffffffffffffffffff82169050919050565b5f6105788261054f565b9050919050565b6105888161056e565b82525050565b5f6020820190506105a15f83018461057f565b92915050565b6105b0816104f1565b82525050565b5f81519050919050565b5f82825260208201905092915050565b5f5b838110156105ed5780820151818401526020810190506105d2565b5f8484015250505050565b5f601f19601f8301169050919050565b5f610612826105b6565b61061c81856105c0565b935061062c8185602086016105d0565b610635816105f8565b840191505092915050565b5f604083015f8301516106555f8601826105a7565b506020830151848203602086015261066d8282610608565b9150508091505092915050565b5f6020820190508181035f8301526106928184610640565b905092915050565b6106a3816104f1565b82525050565b5f82825260208201905092915050565b5f6106c3826105b6565b6106cd81856106a9565b93506106dd8185602086016105d0565b6106e6816105f8565b840191505092915050565b5f6040820190506107045f83018561069a565b818103602083015261071681846106b9565b90509392505050565b5f80fd5b7f4e487b71000000000000000000000000000000000000000000000000000000005f52604160045260245ffd5b610759826105f8565b810181811067ffffffffffffffff8211171561077857610777610723565b5b80604052505050565b5f61078a6104e0565b90506107968282610750565b919050565b5f67ffffffffffffffff8211156107b5576107b4610723565b5b602082029050602081019050919050565b5f80fd5b5f80fd5b5f80fd5b5f80fd5b5f67ffffffffffffffff8211156107f0576107ef610723565b5b6107f9826105f8565b9050602081019050919050565b828183375f83830152505050565b5f610826610821846107d6565b610781565b905082815260208101848484011115610842576108416107d2565b5b61084d848285610806565b509392505050565b5f82601f8301126108695761086861071f565b5b8135610879848260208601610814565b91505092915050565b5f60408284031215610897576108966107ca565b5b6108a16040610781565b90505f6108b084828501610510565b5f83015250602082013567ffffffffffffffff8111156108d3576108d26107ce565b5b6108df84828501610855565b60208301525092915050565b5f6108fd6108f88461079b565b610781565b905080838252602082019050602084028301858111156109205761091f6107c6565b5b835b8181101561096757803567ffffffffffffffff8111156109455761094461071f565b5b8086016109528982610882565b85526020850194505050602081019050610922565b5050509392505050565b5f82601f8301126109855761098461071f565b5b81356109958482602086016108eb565b91505092915050565b5f602082840312156109b3576109b26104e9565b5b5f82013567ffffffffffffffff8111156109d0576109cf6104ed565b5b6109dc84828501610971565b91505092915050565b7f4e487b71000000000000000000000000000000000000000000000000000000005f52602260045260245ffd5b5f6002820490506001821680610a2957607f821691505b602082108103610a3c57610a3b6109e5565b5b50919050565b7f5265636f726420646f6573206e6f7420657869737400000000000000000000005f82015250565b5f610a766015836106a9565b9150610a8182610a42565b602082019050919050565b5f6020820190508181035f830152610aa381610a6a565b9050919050565b7f4f6e6c792061646d696e2063616e2063616c6c20746869732066756e6374696f5f8201527f6e00000000000000000000000000000000000000000000000000000000000000602082015250565b5f610b046021836106a9565b9150610b0f82610aaa565b604082019050919050565b5f6020820190508181035f830152610b3181610af8565b9050919050565b7f4e487b71000000000000000000000000000000000000000000000000000000005f52603260045260245ffd5b7f4e487b71000000000000000000000000000000000000000000000000000000005f52601160045260245ffd5b5f610b9c826104f1565b91507fffffffffffffffffffffffffffffffffffffffffffffffffffffffffffffffff8203610bce57610bcd610b65565b5b600182019050919050565b5f819050815f5260205f209050919050565b5f6020601f8301049050919050565b5f82821b905092915050565b5f60088302610c357fffffffffffffffffffffffffffffffffffffffffffffffffffffffffffffffff82610bfa565b610c3f8683610bfa565b95508019841693508086168417925050509392505050565b5f819050919050565b5f610c7a610c75610c70846104f1565b610c57565b6104f1565b9050919050565b5f819050919050565b610c9383610c60565b610ca7610c9f82610c81565b848454610c06565b825550505050565b5f90565b610cbb610caf565b610cc6818484610c8a565b505050565b5b81811015610ce957610cde5f82610cb3565b600181019050610ccc565b5050565b601f821115610d2e57610cff81610bd9565b610d0884610beb565b81016020851015610d17578190505b610d2b610d2385610beb565b830182610ccb565b50505b505050565b5f82821c905092915050565b5f610d4e5f1984600802610d33565b1980831691505092915050565b5f610d668383610d3f565b9150826002028217905092915050565b610d7f826105b6565b67ffffffffffffffff811115610d9857610d97610723565b5b610da28254610a12565b610dad828285610ced565b5f60209050601f831160018114610dde575f8415610dcc578287015190505b610dd68582610d5b565b865550610e3d565b601f198416610dec86610bd9565b5f5b82811015610e1357848901518255600182019150602085019450602081019050610dee565b86831015610e305784890151610e2c601f891682610d3f565b8355505b6001600288020188555050505b505050505050565b5f602082019050610e585f83018461069a565b9291505056fea264697066735822122048c67dab977e8dfe53b0bf32a6c029a8e34e25408d425aac25d0aec23c7b189964736f6c63430008140033",
  "immutableReferences": {},
  "source": "// SPDX-License-Identifier: MIT\npragma solidity ^0.8.13;\n\n//import \"@openzeppelin/contracts/utils/Strings.sol\";\n\n\ncontract AircraftMaintenanceHistory {\n    \n    uint256 private recordIdCounter = 0;\n\n    //     \n    struct MaintenanceRecord {\n        uint256 id;\n        //  ,  ID,  ,   \n        //  JSON    .\n        string contents; \n    }\n\n    //     ( )\n    address[] public admins;\n    mapping(uint256 => MaintenanceRecord) public maintenanceRecords;\n\n    //      \n    event RecordSaved(uint256 recordId);\n\n    // :      .\n    constructor(address[] memory _admins) {\n        setAdmins(_admins);\n    }\n\n    //       \n    modifier onlyAdmin() {\n        require(isAdmin(msg.sender), \"Only admin can call this function\");\n        _;\n    }\n\n    // ---    (  ) ---\n    function isAdmin(address addr) private view returns (bool) {\n        for (uint256 i = 0; i < admins.length; i++) {\n            if (admins[i] == addr) {\n                return true;\n            }\n        }\n        return false;\n    }\n\n    function setAdmins(address[] memory _admins) private {\n        require(_admins.length > 0, \"At least one admin address is required\");\n        admins = _admins;\n    }\n\n    // ---  :    ---\n    //      .\n    function recordMaintenance(MaintenanceRecord[] memory _records) public onlyAdmin {\n        for (uint i = 0; i < _records.length; i++) {\n            MaintenanceRecord memory record = _records[i];\n            uint256 id = record.id;\n            \n            if (id == 0) {\n                recordIdCounter++; \n                // []    id .\n                id = recordIdCounter; \n            }\n\n            //     .\n            maintenanceRecords[id] = MaintenanceRecord(id, record.contents);\n            emit RecordSaved(id);\n        }\n    }\n\n    // ---  :    ---\n    function getMaintenanceRecord(uint256 id) public view returns (MaintenanceRecord memory) {\n        MaintenanceRecord memory record = maintenanceRecords[id];\n        require(record.id != 0, \"Record does not exist\");\n        return record;\n    }\n}",
  "sourcePath": "/Users/ssukthugg/ungr/aircrafttt/contracts/AircraftMaintenanceHistory.sol",
  "compiler": {
    "name": "solc",
    "version": "0.8.20+commit.a1b79de6.Emscripten.clang"
  },
  "schemaVersion": "3.4.16",
  "updatedAt": "2025-10-17T15:55:19.460Z",
  "networkType": "ethereum",
  "devdoc": {
    "kind": "dev",
    "methods": {},
    "version": 1
  },
  "userdoc": {
    "kind": "user",
    "methods": {},
    "version": 1
  }
}