{
  "contractName": "AircraftMaintenanceHistory",
  "abi": [
    {
      "inputs": [
        {
          "internalType": "address[]",
          "name": "_admins",
          "type": "address[]"
        }
      ],
      "stateMutability": "nonpayable",
      "type": "constructor"
    },
    {
      "anonymous": false,
      "inputs": [
        {
          "indexed": false,
          "internalType": "uint256",
          "name": "fileId",
          "type": "uint256"
        },
        {
          "indexed": false,
          "internalType": "string",
          "name": "ipfsHash",
          "type": "string"
        }
      ],
      "name": "FileHashRecorded",
      "type": "event"
    },
    {
      "inputs": [
        {
          "internalType": "uint256",
          "name": "",
          "type": "uint256"
        }
      ],
      "name": "admins",
      "outputs": [
        {
          "internalType": "address",
          "name": "",
          "type": "address"
        }
      ],
      "stateMutability": "view",
      "type": "function",
      "constant": true
    },
    {
      "inputs": [
        {
          "internalType": "uint256",
          "name": "",
          "type": "uint256"
        }
      ],
      "name": "fileHashes",
      "outputs": [
        {
          "internalType": "string",
          "name": "",
          "type": "string"
        }
      ],
      "stateMutability": "view",
      "type": "function",
      "constant": true
    },
    {
      "inputs": [
        {
          "internalType": "string",
          "name": "_ipfsHash",
          "type": "string"
        }
      ],
      "name": "addFileHash",
      "outputs": [
        {
          "internalType": "uint256",
          "name": "",
          "type": "uint256"
        }
      ],
      "stateMutability": "nonpayable",
      "type": "function"
    },
    {
      "inputs": [
        {
          "internalType": "uint256",
          "name": "_fileId",
          "type": "uint256"
        }
      ],
      "name": "getFileHash",
      "outputs": [
        {
          "internalType": "string",
          "name": "",
          "type": "string"
        }
      ],
      "stateMutability": "view",
      "type": "function",
      "constant": true
    }
  ],
  "bytecode": "0x60806040525f805534801562000013575f80fd5b50604051620010f0380380620010f083398181016040528101906200003991906200033a565b6200004a816200005160201b60201c565b506200042d565b5f81511162000097576040517f08c379a00000000000000000000000000000000000000000000000000000000081526004016200008e906200040d565b60405180910390fd5b8060029080519060200190620000af929190620000b3565b5050565b828054828255905f5260205f209081019282156200012c579160200282015b828111156200012b578251825f6101000a81548173ffffffffffffffffffffffffffffffffffffffff021916908373ffffffffffffffffffffffffffffffffffffffff16021790555091602001919060010190620000d2565b5b5090506200013b91906200013f565b5090565b5b8082111562000158575f815f90555060010162000140565b5090565b5f604051905090565b5f80fd5b5f80fd5b5f80fd5b5f601f19601f8301169050919050565b7f4e487b71000000000000000000000000000000000000000000000000000000005f52604160045260245ffd5b620001b98262000171565b810181811067ffffffffffffffff82111715620001db57620001da62000181565b5b80604052505050565b5f620001ef6200015c565b9050620001fd8282620001ae565b919050565b5f67ffffffffffffffff8211156200021f576200021e62000181565b5b602082029050602081019050919050565b5f80fd5b5f73ffffffffffffffffffffffffffffffffffffffff82169050919050565b5f6200025f8262000234565b9050919050565b620002718162000253565b81146200027c575f80fd5b50565b5f815190506200028f8162000266565b92915050565b5f620002ab620002a58462000202565b620001e4565b90508083825260208201905060208402830185811115620002d157620002d062000230565b5b835b81811015620002fe5780620002e988826200027f565b845260208401935050602081019050620002d3565b5050509392505050565b5f82601f8301126200031f576200031e6200016d565b5b81516200033184826020860162000295565b91505092915050565b5f6020828403121562000352576200035162000165565b5b5f82015167ffffffffffffffff81111562000372576200037162000169565b5b620003808482850162000308565b91505092915050565b5f82825260208201905092915050565b7f4174206c65617374206f6e652061646d696e20616464726573732069732072655f8201527f7175697265640000000000000000000000000000000000000000000000000000602082015250565b5f620003f560268362000389565b9150620004028262000399565b604082019050919050565b5f6020820190508181035f8301526200042681620003e7565b9050919050565b610cb5806200043b5f395ff3fe608060405234801561000f575f80fd5b506004361061004a575f3560e01c806314bfd6d01461004e578063ba89949e1461007e578063c110f4c9146100ae578063eb131135146100de575b5f80fd5b610068600480360381019061006391906104c1565b61010e565b604051610075919061052b565b60405180910390f35b61009860048036038101906100939190610680565b610149565b6040516100a591906106d6565b60405180910390f35b6100c860048036038101906100c391906104c1565b610251565b6040516100d59190610769565b60405180910390f35b6100f860048036038101906100f391906104c1565b6102ec565b6040516101059190610769565b60405180910390f35b6002818154811061011d575f80fd5b905f5260205f20015f915054906101000a900473ffffffffffffffffffffffffffffffffffffffff1681565b5f610153336103d5565b610192576040517f08c379a0000000000000000000000000000000000000000000000000000000008152600401610189906107f9565b60405180910390fd5b5f8251116101d5576040517f08c379a00000000000000000000000000000000000000000000000000000000081526004016101cc90610861565b60405180910390fd5b5f808154809291906101e6906108ac565b91905055505f805490508260015f8381526020019081526020015f20908161020e9190610aed565b507fdaa05d02f395cba01ddf05bb54952e079b7a92362579e3ad67dbbcb3b2ec21198184604051610240929190610bbc565b60405180910390a180915050919050565b6001602052805f5260405f205f91509050805461026d90610920565b80601f016020809104026020016040519081016040528092919081815260200182805461029990610920565b80156102e45780601f106102bb576101008083540402835291602001916102e4565b820191905f5260205f20905b8154815290600101906020018083116102c757829003601f168201915b505050505081565b60605f60015f8481526020019081526020015f20805461030b90610920565b80601f016020809104026020016040519081016040528092919081815260200182805461033790610920565b80156103825780601f1061035957610100808354040283529160200191610382565b820191905f5260205f20905b81548152906001019060200180831161036557829003601f168201915b505050505090505f8151116103cc576040517f08c379a00000000000000000000000000000000000000000000000000000000081526004016103c390610c34565b60405180910390fd5b80915050919050565b5f805f90505b600280549050811015610473578273ffffffffffffffffffffffffffffffffffffffff166002828154811061041357610412610c52565b5b905f5260205f20015f9054906101000a900473ffffffffffffffffffffffffffffffffffffffff1673ffffffffffffffffffffffffffffffffffffffff1603610460576001915050610478565b808061046b906108ac565b9150506103db565b505f90505b919050565b5f604051905090565b5f80fd5b5f80fd5b5f819050919050565b6104a08161048e565b81146104aa575f80fd5b50565b5f813590506104bb81610497565b92915050565b5f602082840312156104d6576104d5610486565b5b5f6104e3848285016104ad565b91505092915050565b5f73ffffffffffffffffffffffffffffffffffffffff82169050919050565b5f610515826104ec565b9050919050565b6105258161050b565b82525050565b5f60208201905061053e5f83018461051c565b92915050565b5f80fd5b5f80fd5b5f601f19601f8301169050919050565b7f4e487b71000000000000000000000000000000000000000000000000000000005f52604160045260245ffd5b6105928261054c565b810181811067ffffffffffffffff821117156105b1576105b061055c565b5b80604052505050565b5f6105c361047d565b90506105cf8282610589565b919050565b5f67ffffffffffffffff8211156105ee576105ed61055c565b5b6105f78261054c565b9050602081019050919050565b828183375f83830152505050565b5f61062461061f846105d4565b6105ba565b9050828152602081018484840111156106405761063f610548565b5b61064b848285610604565b509392505050565b5f82601f83011261066757610666610544565b5b8135610677848260208601610612565b91505092915050565b5f6020828403121561069557610694610486565b5b5f82013567ffffffffffffffff8111156106b2576106b161048a565b5b6106be84828501610653565b91505092915050565b6106d08161048e565b82525050565b5f6020820190506106e95f8301846106c7565b92915050565b5f81519050919050565b5f82825260208201905092915050565b5f5b8381101561072657808201518184015260208101905061070b565b5f8484015250505050565b5f61073b826106ef565b61074581856106f9565b9350610755818560208601610709565b61075e8161054c565b840191505092915050565b5f6020820190508181035f8301526107818184610731565b905092915050565b7f4f6e6c792061646d696e2063616e2063616c6c20746869732066756e6374696f5f8201527f6e00000000000000000000000000000000000000000000000000000000000000602082015250565b5f6107e36021836106f9565b91506107ee82610789565b604082019050919050565b5f6020820190508181035f830152610810816107d7565b9050919050565b7f4950465320486173682063616e6e6f7420626520656d707479000000000000005f82015250565b5f61084b6019836106f9565b915061085682610817565b602082019050919050565b5f6020820190508181035f8301526108788161083f565b9050919050565b7f4e487b71000000000000000000000000000000000000000000000000000000005f52601160045260245ffd5b5f6108b68261048e565b91507fffffffffffffffffffffffffffffffffffffffffffffffffffffffffffffffff82036108e8576108e761087f565b5b600182019050919050565b7f4e487b71000000000000000000000000000000000000000000000000000000005f52602260045260245ffd5b5f600282049050600182168061093757607f821691505b60208210810361094a576109496108f3565b5b50919050565b5f819050815f5260205f209050919050565b5f6020601f8301049050919050565b5f82821b905092915050565b5f600883026109ac7fffffffffffffffffffffffffffffffffffffffffffffffffffffffffffffffff82610971565b6109b68683610971565b95508019841693508086168417925050509392505050565b5f819050919050565b5f6109f16109ec6109e78461048e565b6109ce565b61048e565b9050919050565b5f819050919050565b610a0a836109d7565b610a1e610a16826109f8565b84845461097d565b825550505050565b5f90565b610a32610a26565b610a3d818484610a01565b505050565b5b81811015610a6057610a555f82610a2a565b600181019050610a43565b5050565b601f821115610aa557610a7681610950565b610a7f84610962565b81016020851015610a8e578190505b610aa2610a9a85610962565b830182610a42565b50505b505050565b5f82821c905092915050565b5f610ac55f1984600802610aaa565b1980831691505092915050565b5f610add8383610ab6565b9150826002028217905092915050565b610af6826106ef565b67ffffffffffffffff811115610b0f57610b0e61055c565b5b610b198254610920565b610b24828285610a64565b5f60209050601f831160018114610b55575f8415610b43578287015190505b610b4d8582610ad2565b865550610bb4565b601f198416610b6386610950565b5f5b82811015610b8a57848901518255600182019150602085019450602081019050610b65565b86831015610ba75784890151610ba3601f891682610ab6565b8355505b6001600288020188555050505b505050505050565b5f604082019050610bcf5f8301856106c7565b8181036020830152610be18184610731565b90509392505050565b7f46696c6520494420646f6573206e6f74206578697374000000000000000000005f82015250565b5f610c1e6016836106f9565b9150610c2982610bea565b602082019050919050565b5f6020820190508181035f830152610c4b81610c12565b9050919050565b7f4e487b71000000000000000000000000000000000000000000000000000000005f52603260045260245ffdfea2646970667358221220fe124d1b6ac10d6bea169394001e5ea96da55b268bc4bd8c0d52a1ec855e9ba664736f6c63430008140033",
  "immutableReferences": {},
  "source": "// SPDX-License-Identifier: MIT\npragma solidity ^0.8.13;\n\n//    (CSV)    ,\n// IPFS    (Hash/CID) \n// Gas      .\n\ncontract AircraftMaintenanceHistory {\n    \n    // IPFS Hash   ( Hash  ID )\n    uint256 private fileIdCounter = 0;\n\n    // fileId( ID) => IPFS Content Identifier (CID, Hash) .\n    mapping(uint256 => string) public fileHashes;\n\n    //   \n    address[] public admins;\n\n    //   Hash    \n    event FileHashRecorded(uint256 fileId, string ipfsHash);\n\n    // :      .\n    constructor(address[] memory _admins) {\n        setAdmins(_admins);\n    }\n\n    //       \n    modifier onlyAdmin() {\n        require(isAdmin(msg.sender), \"Only admin can call this function\");\n        _;\n    }\n\n    // ---    ---\n    function isAdmin(address addr) private view returns (bool) {\n        for (uint256 i = 0; i < admins.length; i++) {\n            if (admins[i] == addr) {\n                return true;\n            }\n        }\n        return false;\n    }\n\n    function setAdmins(address[] memory _admins) private {\n        require(_admins.length > 0, \"At least one admin address is required\");\n        admins = _admins;\n    }\n\n    // ---  Gas  : IPFS Hash  ---\n    //   CSV   ,    IPFS Hash(CID) .\n    //  Gas    .\n    function addFileHash(string memory _ipfsHash) public onlyAdmin returns (uint256) {\n        // Hash     \n        require(bytes(_ipfsHash).length > 0, \"IPFS Hash cannot be empty\");\n\n        fileIdCounter++; \n        uint256 newFileId = fileIdCounter;\n\n        //    ID IPFS Hash .\n        //      .\n        fileHashes[newFileId] = _ipfsHash;\n        \n        emit FileHashRecorded(newFileId, _ipfsHash);\n        \n        return newFileId;\n    }\n\n    // ---  : IPFS Hash  ---\n    // ID   IPFS Hash(CID) . \n    function getFileHash(uint256 _fileId) public view returns (string memory) {\n        string memory ipfsHash = fileHashes[_fileId];\n        // Hash  0  ID   .\n        require(bytes(ipfsHash).length > 0, \"File ID does not exist\");\n        return ipfsHash;\n    }\n}",
  "sourcePath": "/Users/ssukthugg/ungr/aircrafttt/contracts/AircraftMaintenanceHistory.sol",
  "compiler": {
    "name": "solc",
    "version": "0.8.20+commit.a1b79de6.Emscripten.clang"
  },
  "schemaVersion": "3.4.16",
  "updatedAt": "2025-11-12T21:07:16.964Z",
  "networkType": "ethereum",
  "devdoc": {
    "kind": "dev",
    "methods": {},
    "version": 1
  },
  "userdoc": {
    "kind": "user",
    "methods": {},
    "version": 1
  }
}