{
  "contractName": "AircraftMaintenanceHistory",
  "abi": [
    {
      "inputs": [
        {
          "internalType": "address[]",
          "name": "_admins",
          "type": "address[]"
        }
      ],
      "stateMutability": "nonpayable",
      "type": "constructor"
    },
    {
      "anonymous": false,
      "inputs": [
        {
          "indexed": true,
          "internalType": "address",
          "name": "admin",
          "type": "address"
        }
      ],
      "name": "AdminAdded",
      "type": "event"
    },
    {
      "anonymous": false,
      "inputs": [
        {
          "indexed": true,
          "internalType": "address",
          "name": "admin",
          "type": "address"
        }
      ],
      "name": "AdminRemoved",
      "type": "event"
    },
    {
      "anonymous": false,
      "inputs": [
        {
          "indexed": true,
          "internalType": "uint256",
          "name": "fileId",
          "type": "uint256"
        },
        {
          "indexed": false,
          "internalType": "string",
          "name": "tailNumber",
          "type": "string"
        },
        {
          "indexed": false,
          "internalType": "string",
          "name": "aircraftType",
          "type": "string"
        },
        {
          "indexed": false,
          "internalType": "string",
          "name": "rawCid",
          "type": "string"
        },
        {
          "indexed": false,
          "internalType": "string",
          "name": "processedCid",
          "type": "string"
        },
        {
          "indexed": false,
          "internalType": "string",
          "name": "mechanicLicense",
          "type": "string"
        },
        {
          "indexed": false,
          "internalType": "uint256",
          "name": "initialPrice",
          "type": "uint256"
        },
        {
          "indexed": true,
          "internalType": "address",
          "name": "submitter",
          "type": "address"
        },
        {
          "indexed": false,
          "internalType": "uint256",
          "name": "submittedAt",
          "type": "uint256"
        }
      ],
      "name": "RecordAnchored",
      "type": "event"
    },
    {
      "anonymous": false,
      "inputs": [
        {
          "indexed": true,
          "internalType": "address",
          "name": "submitter",
          "type": "address"
        },
        {
          "indexed": false,
          "internalType": "string",
          "name": "reason",
          "type": "string"
        },
        {
          "indexed": false,
          "internalType": "uint256",
          "name": "timestamp",
          "type": "uint256"
        }
      ],
      "name": "RecordRejected",
      "type": "event"
    },
    {
      "inputs": [],
      "name": "MIN_CID_LENGTH",
      "outputs": [
        {
          "internalType": "uint256",
          "name": "",
          "type": "uint256"
        }
      ],
      "stateMutability": "view",
      "type": "function",
      "constant": true
    },
    {
      "inputs": [],
      "name": "MIN_LICENSE_LENGTH",
      "outputs": [
        {
          "internalType": "uint256",
          "name": "",
          "type": "uint256"
        }
      ],
      "stateMutability": "view",
      "type": "function",
      "constant": true
    },
    {
      "inputs": [],
      "name": "MIN_TAIL_LENGTH",
      "outputs": [
        {
          "internalType": "uint256",
          "name": "",
          "type": "uint256"
        }
      ],
      "stateMutability": "view",
      "type": "function",
      "constant": true
    },
    {
      "inputs": [
        {
          "internalType": "address",
          "name": "",
          "type": "address"
        }
      ],
      "name": "isAdmin",
      "outputs": [
        {
          "internalType": "bool",
          "name": "",
          "type": "bool"
        }
      ],
      "stateMutability": "view",
      "type": "function",
      "constant": true
    },
    {
      "inputs": [
        {
          "internalType": "address",
          "name": "_admin",
          "type": "address"
        }
      ],
      "name": "addAdmin",
      "outputs": [],
      "stateMutability": "nonpayable",
      "type": "function"
    },
    {
      "inputs": [
        {
          "internalType": "address",
          "name": "_admin",
          "type": "address"
        }
      ],
      "name": "removeAdmin",
      "outputs": [],
      "stateMutability": "nonpayable",
      "type": "function"
    },
    {
      "inputs": [
        {
          "internalType": "string",
          "name": "_tailNumber",
          "type": "string"
        },
        {
          "internalType": "string",
          "name": "_aircraftType",
          "type": "string"
        },
        {
          "internalType": "string",
          "name": "_rawCid",
          "type": "string"
        },
        {
          "internalType": "string",
          "name": "_processedCid",
          "type": "string"
        },
        {
          "internalType": "string",
          "name": "_mechanicLicense",
          "type": "string"
        },
        {
          "internalType": "uint256",
          "name": "_initialPrice",
          "type": "uint256"
        }
      ],
      "name": "addRecord",
      "outputs": [
        {
          "internalType": "uint256",
          "name": "newFileId",
          "type": "uint256"
        }
      ],
      "stateMutability": "nonpayable",
      "type": "function"
    },
    {
      "inputs": [
        {
          "internalType": "uint256",
          "name": "_fileId",
          "type": "uint256"
        }
      ],
      "name": "getRecord",
      "outputs": [
        {
          "components": [
            {
              "internalType": "uint256",
              "name": "fileId",
              "type": "uint256"
            },
            {
              "internalType": "string",
              "name": "tailNumber",
              "type": "string"
            },
            {
              "internalType": "string",
              "name": "aircraftType",
              "type": "string"
            },
            {
              "internalType": "string",
              "name": "rawCid",
              "type": "string"
            },
            {
              "internalType": "string",
              "name": "processedCid",
              "type": "string"
            },
            {
              "internalType": "string",
              "name": "mechanicLicense",
              "type": "string"
            },
            {
              "internalType": "uint256",
              "name": "initialPrice",
              "type": "uint256"
            },
            {
              "internalType": "uint256",
              "name": "submittedAt",
              "type": "uint256"
            },
            {
              "internalType": "address",
              "name": "submitter",
              "type": "address"
            },
            {
              "internalType": "bool",
              "name": "faaValidated",
              "type": "bool"
            }
          ],
          "internalType": "struct AircraftMaintenanceHistory.AircraftRecord",
          "name": "",
          "type": "tuple"
        }
      ],
      "stateMutability": "view",
      "type": "function",
      "constant": true
    },
    {
      "inputs": [],
      "name": "totalRecords",
      "outputs": [
        {
          "internalType": "uint256",
          "name": "",
          "type": "uint256"
        }
      ],
      "stateMutability": "view",
      "type": "function",
      "constant": true
    },
    {
      "inputs": [
        {
          "internalType": "string",
          "name": "_tail",
          "type": "string"
        }
      ],
      "name": "getFileIdsByTail",
      "outputs": [
        {
          "internalType": "uint256[]",
          "name": "",
          "type": "uint256[]"
        }
      ],
      "stateMutability": "view",
      "type": "function",
      "constant": true
    },
    {
      "inputs": [
        {
          "internalType": "string",
          "name": "_tail",
          "type": "string"
        }
      ],
      "name": "getRecordsByTail",
      "outputs": [
        {
          "components": [
            {
              "internalType": "uint256",
              "name": "fileId",
              "type": "uint256"
            },
            {
              "internalType": "string",
              "name": "tailNumber",
              "type": "string"
            },
            {
              "internalType": "string",
              "name": "aircraftType",
              "type": "string"
            },
            {
              "internalType": "string",
              "name": "rawCid",
              "type": "string"
            },
            {
              "internalType": "string",
              "name": "processedCid",
              "type": "string"
            },
            {
              "internalType": "string",
              "name": "mechanicLicense",
              "type": "string"
            },
            {
              "internalType": "uint256",
              "name": "initialPrice",
              "type": "uint256"
            },
            {
              "internalType": "uint256",
              "name": "submittedAt",
              "type": "uint256"
            },
            {
              "internalType": "address",
              "name": "submitter",
              "type": "address"
            },
            {
              "internalType": "bool",
              "name": "faaValidated",
              "type": "bool"
            }
          ],
          "internalType": "struct AircraftMaintenanceHistory.AircraftRecord[]",
          "name": "",
          "type": "tuple[]"
        }
      ],
      "stateMutability": "view",
      "type": "function",
      "constant": true
    },
    {
      "inputs": [
        {
          "internalType": "string",
          "name": "_tail",
          "type": "string"
        }
      ],
      "name": "getLatestRecordByTail",
      "outputs": [
        {
          "components": [
            {
              "internalType": "uint256",
              "name": "fileId",
              "type": "uint256"
            },
            {
              "internalType": "string",
              "name": "tailNumber",
              "type": "string"
            },
            {
              "internalType": "string",
              "name": "aircraftType",
              "type": "string"
            },
            {
              "internalType": "string",
              "name": "rawCid",
              "type": "string"
            },
            {
              "internalType": "string",
              "name": "processedCid",
              "type": "string"
            },
            {
              "internalType": "string",
              "name": "mechanicLicense",
              "type": "string"
            },
            {
              "internalType": "uint256",
              "name": "initialPrice",
              "type": "uint256"
            },
            {
              "internalType": "uint256",
              "name": "submittedAt",
              "type": "uint256"
            },
            {
              "internalType": "address",
              "name": "submitter",
              "type": "address"
            },
            {
              "internalType": "bool",
              "name": "faaValidated",
              "type": "bool"
            }
          ],
          "internalType": "struct AircraftMaintenanceHistory.AircraftRecord",
          "name": "",
          "type": "tuple"
        }
      ],
      "stateMutability": "view",
      "type": "function",
      "constant": true
    },
    {
      "inputs": [
        {
          "internalType": "string",
          "name": "_type",
          "type": "string"
        }
      ],
      "name": "getFileIdsByType",
      "outputs": [
        {
          "internalType": "uint256[]",
          "name": "",
          "type": "uint256[]"
        }
      ],
      "stateMutability": "view",
      "type": "function",
      "constant": true
    },
    {
      "inputs": [
        {
          "internalType": "address",
          "name": "_addr",
          "type": "address"
        }
      ],
      "name": "getFileIdsBySubmitter",
      "outputs": [
        {
          "internalType": "uint256[]",
          "name": "",
          "type": "uint256[]"
        }
      ],
      "stateMutability": "view",
      "type": "function",
      "constant": true
    },
    {
      "inputs": [
        {
          "internalType": "string",
          "name": "_rawCid",
          "type": "string"
        }
      ],
      "name": "getCidRegistry",
      "outputs": [
        {
          "internalType": "uint256",
          "name": "",
          "type": "uint256"
        }
      ],
      "stateMutability": "view",
      "type": "function",
      "constant": true
    }
  ],
  "bytecode": "0x608060405234801562000010575f80fd5b5060405162003b3a38038062003b3a8339818101604052810190620000369190620003e3565b5f8151116200007c576040517f08c379a0000000000000000000000000000000000000000000000000000000008152600401620000739062000490565b60405180910390fd5b5f5b8151811015620001fd575f73ffffffffffffffffffffffffffffffffffffffff16828281518110620000b557620000b4620004b0565b5b602002602001015173ffffffffffffffffffffffffffffffffffffffff160362000116576040517f08c379a00000000000000000000000000000000000000000000000000000000081526004016200010d906200052b565b60405180910390fd5b60015f8084848151811062000130576200012f620004b0565b5b602002602001015173ffffffffffffffffffffffffffffffffffffffff1673ffffffffffffffffffffffffffffffffffffffff1681526020019081526020015f205f6101000a81548160ff0219169083151502179055508181815181106200019d576200019c620004b0565b5b602002602001015173ffffffffffffffffffffffffffffffffffffffff167f44d6d25963f097ad14f29f06854a01f575648a1ef82f30e562ccd3889717e33960405160405180910390a28080620001f49062000581565b9150506200007e565b5050620005cd565b5f604051905090565b5f80fd5b5f80fd5b5f80fd5b5f601f19601f8301169050919050565b7f4e487b71000000000000000000000000000000000000000000000000000000005f52604160045260245ffd5b62000262826200021a565b810181811067ffffffffffffffff821117156200028457620002836200022a565b5b80604052505050565b5f6200029862000205565b9050620002a6828262000257565b919050565b5f67ffffffffffffffff821115620002c857620002c76200022a565b5b602082029050602081019050919050565b5f80fd5b5f73ffffffffffffffffffffffffffffffffffffffff82169050919050565b5f6200030882620002dd565b9050919050565b6200031a81620002fc565b811462000325575f80fd5b50565b5f8151905062000338816200030f565b92915050565b5f620003546200034e84620002ab565b6200028d565b905080838252602082019050602084028301858111156200037a5762000379620002d9565b5b835b81811015620003a7578062000392888262000328565b8452602084019350506020810190506200037c565b5050509392505050565b5f82601f830112620003c857620003c762000216565b5b8151620003da8482602086016200033e565b91505092915050565b5f60208284031215620003fb57620003fa6200020e565b5b5f82015167ffffffffffffffff8111156200041b576200041a62000212565b5b6200042984828501620003b1565b91505092915050565b5f82825260208201905092915050565b7f4174206c65617374206f6e652061646d696e20726571756972656400000000005f82015250565b5f62000478601b8362000432565b9150620004858262000442565b602082019050919050565b5f6020820190508181035f830152620004a9816200046a565b9050919050565b7f4e487b71000000000000000000000000000000000000000000000000000000005f52603260045260245ffd5b7f5a65726f2061646472657373206e6f7420616c6c6f77656400000000000000005f82015250565b5f6200051360188362000432565b91506200052082620004dd565b602082019050919050565b5f6020820190508181035f830152620005448162000505565b9050919050565b7f4e487b71000000000000000000000000000000000000000000000000000000005f52601160045260245ffd5b5f819050919050565b5f6200058d8262000578565b91507fffffffffffffffffffffffffffffffffffffffffffffffffffffffffffffffff8203620005c257620005c16200054b565b5b600182019050919050565b61355f80620005db5f395ff3fe608060405234801561000f575f80fd5b50600436106100f3575f3560e01c8063623dcb5611610095578063a6667de911610064578063a6667de914610297578063ce5a509c146102c7578063d3de3af7146102f7578063d6add9c314610327576100f3565b8063623dcb56146101fd578063704802751461022d5780638d6e002a14610249578063a356a2d814610267576100f3565b806324d7806c116100d157806324d7806c1461016157806335043bd2146101915780634b6f1780146101c157806352288951146101df576100f3565b806303e9e609146100f7578063125f8974146101275780631785f53c14610145575b5f80fd5b610111600480360381019061010c9190611f1b565b610357565b60405161011e919061212b565b60405180910390f35b61012f610735565b60405161013c919061215a565b60405180910390f35b61015f600480360381019061015a919061219d565b61073e565b005b61017b6004803603810190610176919061219d565b610955565b60405161018891906121d7565b60405180910390f35b6101ab60048036038101906101a6919061231c565b610971565b6040516101b8919061215a565b60405180910390f35b6101c9610cf6565b6040516101d6919061215a565b60405180910390f35b6101e7610cfb565b6040516101f4919061215a565b60405180910390f35b61021760048036038101906102129190612431565b610d00565b6040516102249190612626565b60405180910390f35b6102476004803603810190610242919061219d565b6111a3565b005b6102516113bc565b60405161025e919061215a565b60405180910390f35b610281600480360381019061027c9190612431565b6113c1565b60405161028e919061212b565b60405180910390f35b6102b160048036038101906102ac9190612431565b611823565b6040516102be91906126ee565b60405180910390f35b6102e160048036038101906102dc9190612431565b611897565b6040516102ee91906126ee565b60405180910390f35b610311600480360381019061030c919061219d565b61190b565b60405161031e91906126ee565b60405180910390f35b610341600480360381019061033c9190612431565b61199e565b60405161034e919061215a565b60405180910390f35b61035f611e71565b5f60025f8481526020019081526020015f205f0154036103b4576040517f08c379a00000000000000000000000000000000000000000000000000000000081526004016103ab90612768565b60405180910390fd5b60025f8381526020019081526020015f20604051806101400160405290815f82015481526020016001820180546103ea906127b3565b80601f0160208091040260200160405190810160405280929190818152602001828054610416906127b3565b80156104615780601f1061043857610100808354040283529160200191610461565b820191905f5260205f20905b81548152906001019060200180831161044457829003601f168201915b5050505050815260200160028201805461047a906127b3565b80601f01602080910402602001604051908101604052809291908181526020018280546104a6906127b3565b80156104f15780601f106104c8576101008083540402835291602001916104f1565b820191905f5260205f20905b8154815290600101906020018083116104d457829003601f168201915b5050505050815260200160038201805461050a906127b3565b80601f0160208091040260200160405190810160405280929190818152602001828054610536906127b3565b80156105815780601f1061055857610100808354040283529160200191610581565b820191905f5260205f20905b81548152906001019060200180831161056457829003601f168201915b5050505050815260200160048201805461059a906127b3565b80601f01602080910402602001604051908101604052809291908181526020018280546105c6906127b3565b80156106115780601f106105e857610100808354040283529160200191610611565b820191905f5260205f20905b8154815290600101906020018083116105f457829003601f168201915b5050505050815260200160058201805461062a906127b3565b80601f0160208091040260200160405190810160405280929190818152602001828054610656906127b3565b80156106a15780601f10610678576101008083540402835291602001916106a1565b820191905f5260205f20905b81548152906001019060200180831161068457829003601f168201915b505050505081526020016006820154815260200160078201548152602001600882015f9054906101000a900473ffffffffffffffffffffffffffffffffffffffff1673ffffffffffffffffffffffffffffffffffffffff1673ffffffffffffffffffffffffffffffffffffffff1681526020016008820160149054906101000a900460ff1615151515815250509050919050565b5f600154905090565b5f803373ffffffffffffffffffffffffffffffffffffffff1673ffffffffffffffffffffffffffffffffffffffff1681526020019081526020015f205f9054906101000a900460ff166107c6576040517f08c379a00000000000000000000000000000000000000000000000000000000081526004016107bd90612853565b60405180910390fd5b5f808273ffffffffffffffffffffffffffffffffffffffff1673ffffffffffffffffffffffffffffffffffffffff1681526020019081526020015f205f9054906101000a900460ff1661084e576040517f08c379a0000000000000000000000000000000000000000000000000000000008152600401610845906128bb565b60405180910390fd5b3373ffffffffffffffffffffffffffffffffffffffff168173ffffffffffffffffffffffffffffffffffffffff16036108bc576040517f08c379a00000000000000000000000000000000000000000000000000000000081526004016108b390612923565b60405180910390fd5b5f805f8373ffffffffffffffffffffffffffffffffffffffff1673ffffffffffffffffffffffffffffffffffffffff1681526020019081526020015f205f6101000a81548160ff0219169083151502179055508073ffffffffffffffffffffffffffffffffffffffff167fa3b62bc36326052d97ea62d63c3d60308ed4c3ea8ac079dd8499f1e9c4f80c0f60405160405180910390a250565b5f602052805f5260405f205f915054906101000a900460ff1681565b5f805f3373ffffffffffffffffffffffffffffffffffffffff1673ffffffffffffffffffffffffffffffffffffffff1681526020019081526020015f205f9054906101000a900460ff166109fa576040517f08c379a00000000000000000000000000000000000000000000000000000000081526004016109f190612853565b60405180910390fd5b610a088787878787876119c5565b60015f815480929190610a1a9061296e565b919050555060015490506040518061014001604052808281526020018881526020018781526020018681526020018581526020018481526020018381526020014281526020013373ffffffffffffffffffffffffffffffffffffffff1681526020016001151581525060025f8381526020019081526020015f205f820151815f01556020820151816001019081610ab19190612b52565b506040820151816002019081610ac79190612b52565b506060820151816003019081610add9190612b52565b506080820151816004019081610af39190612b52565b5060a0820151816005019081610b099190612b52565b5060c0820151816006015560e08201518160070155610100820151816008015f6101000a81548173ffffffffffffffffffffffffffffffffffffffff021916908373ffffffffffffffffffffffffffffffffffffffff1602179055506101208201518160080160146101000a81548160ff02191690831515021790555090505080600686604051610b9a9190612c5b565b908152602001604051809103902081905550600387604051610bbc9190612c5b565b908152602001604051809103902081908060018154018082558091505060019003905f5260205f20015f9091909190915055600486604051610bfe9190612c5b565b908152602001604051809103902081908060018154018082558091505060019003905f5260205f20015f909190919091505560055f3373ffffffffffffffffffffffffffffffffffffffff1673ffffffffffffffffffffffffffffffffffffffff1681526020019081526020015f2081908060018154018082558091505060019003905f5260205f20015f90919091909150553373ffffffffffffffffffffffffffffffffffffffff16817f858e2e603f0eb392e7d2b88316794ed2c0caa30fb2334603d2c373a14378227389898989898942604051610ce49796959493929190612ca9565b60405180910390a39695505050505050565b600681565b600381565b60605f600383604051610d139190612c5b565b9081526020016040518091039020805480602002602001604051908101604052809291908181526020018280548015610d6957602002820191905f5260205f20905b815481526020019060010190808311610d55575b505050505090505f815167ffffffffffffffff811115610d8c57610d8b6121f8565b5b604051908082528060200260200182016040528015610dc557816020015b610db2611e71565b815260200190600190039081610daa5790505b5090505f5b82518110156111985760025f848381518110610de957610de8612d39565b5b602002602001015181526020019081526020015f20604051806101400160405290815f8201548152602001600182018054610e23906127b3565b80601f0160208091040260200160405190810160405280929190818152602001828054610e4f906127b3565b8015610e9a5780601f10610e7157610100808354040283529160200191610e9a565b820191905f5260205f20905b815481529060010190602001808311610e7d57829003601f168201915b50505050508152602001600282018054610eb3906127b3565b80601f0160208091040260200160405190810160405280929190818152602001828054610edf906127b3565b8015610f2a5780601f10610f0157610100808354040283529160200191610f2a565b820191905f5260205f20905b815481529060010190602001808311610f0d57829003601f168201915b50505050508152602001600382018054610f43906127b3565b80601f0160208091040260200160405190810160405280929190818152602001828054610f6f906127b3565b8015610fba5780601f10610f9157610100808354040283529160200191610fba565b820191905f5260205f20905b815481529060010190602001808311610f9d57829003601f168201915b50505050508152602001600482018054610fd3906127b3565b80601f0160208091040260200160405190810160405280929190818152602001828054610fff906127b3565b801561104a5780601f106110215761010080835404028352916020019161104a565b820191905f5260205f20905b81548152906001019060200180831161102d57829003601f168201915b50505050508152602001600582018054611063906127b3565b80601f016020809104026020016040519081016040528092919081815260200182805461108f906127b3565b80156110da5780601f106110b1576101008083540402835291602001916110da565b820191905f5260205f20905b8154815290600101906020018083116110bd57829003601f168201915b505050505081526020016006820154815260200160078201548152602001600882015f9054906101000a900473ffffffffffffffffffffffffffffffffffffffff1673ffffffffffffffffffffffffffffffffffffffff1673ffffffffffffffffffffffffffffffffffffffff1681526020016008820160149054906101000a900460ff16151515158152505082828151811061117a57611179612d39565b5b602002602001018190525080806111909061296e565b915050610dca565b508092505050919050565b5f803373ffffffffffffffffffffffffffffffffffffffff1673ffffffffffffffffffffffffffffffffffffffff1681526020019081526020015f205f9054906101000a900460ff1661122b576040517f08c379a000000000000000000000000000000000000000000000000000000000815260040161122290612853565b60405180910390fd5b5f73ffffffffffffffffffffffffffffffffffffffff168173ffffffffffffffffffffffffffffffffffffffff1603611299576040517f08c379a000000000000000000000000000000000000000000000000000000000815260040161129090612db0565b60405180910390fd5b5f808273ffffffffffffffffffffffffffffffffffffffff1673ffffffffffffffffffffffffffffffffffffffff1681526020019081526020015f205f9054906101000a900460ff1615611322576040517f08c379a000000000000000000000000000000000000000000000000000000000815260040161131990612e18565b60405180910390fd5b60015f808373ffffffffffffffffffffffffffffffffffffffff1673ffffffffffffffffffffffffffffffffffffffff1681526020019081526020015f205f6101000a81548160ff0219169083151502179055508073ffffffffffffffffffffffffffffffffffffffff167f44d6d25963f097ad14f29f06854a01f575648a1ef82f30e562ccd3889717e33960405160405180910390a250565b602e81565b6113c9611e71565b5f6003836040516113da9190612c5b565b908152602001604051809103902080548060200260200160405190810160405280929190818152602001828054801561143057602002820191905f5260205f20905b81548152602001906001019080831161141c575b505050505090505f81511161147a576040517f08c379a000000000000000000000000000000000000000000000000000000000815260040161147190612ea6565b60405180910390fd5b60025f826001845161148c9190612ec4565b8151811061149d5761149c612d39565b5b602002602001015181526020019081526020015f20604051806101400160405290815f82015481526020016001820180546114d7906127b3565b80601f0160208091040260200160405190810160405280929190818152602001828054611503906127b3565b801561154e5780601f106115255761010080835404028352916020019161154e565b820191905f5260205f20905b81548152906001019060200180831161153157829003601f168201915b50505050508152602001600282018054611567906127b3565b80601f0160208091040260200160405190810160405280929190818152602001828054611593906127b3565b80156115de5780601f106115b5576101008083540402835291602001916115de565b820191905f5260205f20905b8154815290600101906020018083116115c157829003601f168201915b505050505081526020016003820180546115f7906127b3565b80601f0160208091040260200160405190810160405280929190818152602001828054611623906127b3565b801561166e5780601f106116455761010080835404028352916020019161166e565b820191905f5260205f20905b81548152906001019060200180831161165157829003601f168201915b50505050508152602001600482018054611687906127b3565b80601f01602080910402602001604051908101604052809291908181526020018280546116b3906127b3565b80156116fe5780601f106116d5576101008083540402835291602001916116fe565b820191905f5260205f20905b8154815290600101906020018083116116e157829003601f168201915b50505050508152602001600582018054611717906127b3565b80601f0160208091040260200160405190810160405280929190818152602001828054611743906127b3565b801561178e5780601f106117655761010080835404028352916020019161178e565b820191905f5260205f20905b81548152906001019060200180831161177157829003601f168201915b505050505081526020016006820154815260200160078201548152602001600882015f9054906101000a900473ffffffffffffffffffffffffffffffffffffffff1673ffffffffffffffffffffffffffffffffffffffff1673ffffffffffffffffffffffffffffffffffffffff1681526020016008820160149054906101000a900460ff161515151581525050915050919050565b60606004826040516118359190612c5b565b908152602001604051809103902080548060200260200160405190810160405280929190818152602001828054801561188b57602002820191905f5260205f20905b815481526020019060010190808311611877575b50505050509050919050565b60606003826040516118a99190612c5b565b90815260200160405180910390208054806020026020016040519081016040528092919081815260200182805480156118ff57602002820191905f5260205f20905b8154815260200190600101908083116118eb575b50505050509050919050565b606060055f8373ffffffffffffffffffffffffffffffffffffffff1673ffffffffffffffffffffffffffffffffffffffff1681526020019081526020015f2080548060200260200160405190810160405280929190818152602001828054801561199257602002820191905f5260205f20905b81548152602001906001019080831161197e575b50505050509050919050565b5f6006826040516119af9190612c5b565b9081526020016040518091039020549050919050565b600682511015611a58573373ffffffffffffffffffffffffffffffffffffffff167fe3e442ea284e42583464930b0859af4e5145c1ebf5876b8e359b24d9539ac58342604051611a159190612f67565b60405180910390a26040517f08c379a0000000000000000000000000000000000000000000000000000000008152600401611a4f90612f93565b60405180910390fd5b602e84511015611aeb573373ffffffffffffffffffffffffffffffffffffffff167fe3e442ea284e42583464930b0859af4e5145c1ebf5876b8e359b24d9539ac58342604051611aa89190613021565b60405180910390a26040517f08c379a0000000000000000000000000000000000000000000000000000000008152600401611ae29061304d565b60405180910390fd5b602e83511015611b7e573373ffffffffffffffffffffffffffffffffffffffff167fe3e442ea284e42583464930b0859af4e5145c1ebf5876b8e359b24d9539ac58342604051611b3b91906130db565b60405180910390a26040517f08c379a0000000000000000000000000000000000000000000000000000000008152600401611b7590613107565b60405180910390fd5b5f600685604051611b8f9190612c5b565b90815260200160405180910390205414611c2c573373ffffffffffffffffffffffffffffffffffffffff167fe3e442ea284e42583464930b0859af4e5145c1ebf5876b8e359b24d9539ac58342604051611be99190613195565b60405180910390a26040517f08c379a0000000000000000000000000000000000000000000000000000000008152600401611c23906131c1565b60405180910390fd5b5f4211611c6e576040517f08c379a0000000000000000000000000000000000000000000000000000000008152600401611c659061324f565b60405180910390fd5b6402540be3ff4210611cb5576040517f08c379a0000000000000000000000000000000000000000000000000000000008152600401611cac906132dd565b60405180910390fd5b600386511015611d48573373ffffffffffffffffffffffffffffffffffffffff167fe3e442ea284e42583464930b0859af4e5145c1ebf5876b8e359b24d9539ac58342604051611d05919061336b565b60405180910390a26040517f08c379a0000000000000000000000000000000000000000000000000000000008152600401611d3f90613397565b60405180910390fd5b5f8103611dd8573373ffffffffffffffffffffffffffffffffffffffff167fe3e442ea284e42583464930b0859af4e5145c1ebf5876b8e359b24d9539ac58342604051611d959190613425565b60405180910390a26040517f08c379a0000000000000000000000000000000000000000000000000000000008152600401611dcf90613451565b60405180910390fd5b5f855103611e69573373ffffffffffffffffffffffffffffffffffffffff167fe3e442ea284e42583464930b0859af4e5145c1ebf5876b8e359b24d9539ac58342604051611e2691906134df565b60405180910390a26040517f08c379a0000000000000000000000000000000000000000000000000000000008152600401611e609061350b565b60405180910390fd5b505050505050565b6040518061014001604052805f815260200160608152602001606081526020016060815260200160608152602001606081526020015f81526020015f81526020015f73ffffffffffffffffffffffffffffffffffffffff1681526020015f151581525090565b5f604051905090565b5f80fd5b5f80fd5b5f819050919050565b611efa81611ee8565b8114611f04575f80fd5b50565b5f81359050611f1581611ef1565b92915050565b5f60208284031215611f3057611f2f611ee0565b5b5f611f3d84828501611f07565b91505092915050565b611f4f81611ee8565b82525050565b5f81519050919050565b5f82825260208201905092915050565b5f5b83811015611f8c578082015181840152602081019050611f71565b5f8484015250505050565b5f601f19601f8301169050919050565b5f611fb182611f55565b611fbb8185611f5f565b9350611fcb818560208601611f6f565b611fd481611f97565b840191505092915050565b5f73ffffffffffffffffffffffffffffffffffffffff82169050919050565b5f61200882611fdf565b9050919050565b61201881611ffe565b82525050565b5f8115159050919050565b6120328161201e565b82525050565b5f61014083015f83015161204e5f860182611f46565b50602083015184820360208601526120668282611fa7565b915050604083015184820360408601526120808282611fa7565b9150506060830151848203606086015261209a8282611fa7565b915050608083015184820360808601526120b48282611fa7565b91505060a083015184820360a08601526120ce8282611fa7565b91505060c08301516120e360c0860182611f46565b5060e08301516120f660e0860182611f46565b5061010083015161210b61010086018261200f565b50610120830151612120610120860182612029565b508091505092915050565b5f6020820190508181035f8301526121438184612038565b905092915050565b61215481611ee8565b82525050565b5f60208201905061216d5f83018461214b565b92915050565b61217c81611ffe565b8114612186575f80fd5b50565b5f8135905061219781612173565b92915050565b5f602082840312156121b2576121b1611ee0565b5b5f6121bf84828501612189565b91505092915050565b6121d18161201e565b82525050565b5f6020820190506121ea5f8301846121c8565b92915050565b5f80fd5b5f80fd5b7f4e487b71000000000000000000000000000000000000000000000000000000005f52604160045260245ffd5b61222e82611f97565b810181811067ffffffffffffffff8211171561224d5761224c6121f8565b5b80604052505050565b5f61225f611ed7565b905061226b8282612225565b919050565b5f67ffffffffffffffff82111561228a576122896121f8565b5b61229382611f97565b9050602081019050919050565b828183375f83830152505050565b5f6122c06122bb84612270565b612256565b9050828152602081018484840111156122dc576122db6121f4565b5b6122e78482856122a0565b509392505050565b5f82601f830112612303576123026121f0565b5b81356123138482602086016122ae565b91505092915050565b5f805f805f8060c0878903121561233657612335611ee0565b5b5f87013567ffffffffffffffff81111561235357612352611ee4565b5b61235f89828a016122ef565b965050602087013567ffffffffffffffff8111156123805761237f611ee4565b5b61238c89828a016122ef565b955050604087013567ffffffffffffffff8111156123ad576123ac611ee4565b5b6123b989828a016122ef565b945050606087013567ffffffffffffffff8111156123da576123d9611ee4565b5b6123e689828a016122ef565b935050608087013567ffffffffffffffff81111561240757612406611ee4565b5b61241389828a016122ef565b92505060a061242489828a01611f07565b9150509295509295509295565b5f6020828403121561244657612445611ee0565b5b5f82013567ffffffffffffffff81111561246357612462611ee4565b5b61246f848285016122ef565b91505092915050565b5f81519050919050565b5f82825260208201905092915050565b5f819050602082019050919050565b5f61014083015f8301516124b75f860182611f46565b50602083015184820360208601526124cf8282611fa7565b915050604083015184820360408601526124e98282611fa7565b915050606083015184820360608601526125038282611fa7565b9150506080830151848203608086015261251d8282611fa7565b91505060a083015184820360a08601526125378282611fa7565b91505060c083015161254c60c0860182611f46565b5060e083015161255f60e0860182611f46565b5061010083015161257461010086018261200f565b50610120830151612589610120860182612029565b508091505092915050565b5f61259f83836124a1565b905092915050565b5f602082019050919050565b5f6125bd82612478565b6125c78185612482565b9350836020820285016125d985612492565b805f5b8581101561261457848403895281516125f58582612594565b9450612600836125a7565b925060208a019950506001810190506125dc565b50829750879550505050505092915050565b5f6020820190508181035f83015261263e81846125b3565b905092915050565b5f81519050919050565b5f82825260208201905092915050565b5f819050602082019050919050565b5f61267a8383611f46565b60208301905092915050565b5f602082019050919050565b5f61269c82612646565b6126a68185612650565b93506126b183612660565b805f5b838110156126e15781516126c8888261266f565b97506126d383612686565b9250506001810190506126b4565b5085935050505092915050565b5f6020820190508181035f8301526127068184612692565b905092915050565b5f82825260208201905092915050565b7f5265636f726420646f6573206e6f7420657869737400000000000000000000005f82015250565b5f61275260158361270e565b915061275d8261271e565b602082019050919050565b5f6020820190508181035f83015261277f81612746565b9050919050565b7f4e487b71000000000000000000000000000000000000000000000000000000005f52602260045260245ffd5b5f60028204905060018216806127ca57607f821691505b6020821081036127dd576127dc612786565b5b50919050565b7f4f6e6c792061646d696e2063616e2063616c6c20746869732066756e6374696f5f8201527f6e00000000000000000000000000000000000000000000000000000000000000602082015250565b5f61283d60218361270e565b9150612848826127e3565b604082019050919050565b5f6020820190508181035f83015261286a81612831565b9050919050565b7f4e6f7420616e2061646d696e00000000000000000000000000000000000000005f82015250565b5f6128a5600c8361270e565b91506128b082612871565b602082019050919050565b5f6020820190508181035f8301526128d281612899565b9050919050565b7f43616e6e6f742072656d6f766520796f757273656c66000000000000000000005f82015250565b5f61290d60168361270e565b9150612918826128d9565b602082019050919050565b5f6020820190508181035f83015261293a81612901565b9050919050565b7f4e487b71000000000000000000000000000000000000000000000000000000005f52601160045260245ffd5b5f61297882611ee8565b91507fffffffffffffffffffffffffffffffffffffffffffffffffffffffffffffffff82036129aa576129a9612941565b5b600182019050919050565b5f819050815f5260205f209050919050565b5f6020601f8301049050919050565b5f82821b905092915050565b5f60088302612a117fffffffffffffffffffffffffffffffffffffffffffffffffffffffffffffffff826129d6565b612a1b86836129d6565b95508019841693508086168417925050509392505050565b5f819050919050565b5f612a56612a51612a4c84611ee8565b612a33565b611ee8565b9050919050565b5f819050919050565b612a6f83612a3c565b612a83612a7b82612a5d565b8484546129e2565b825550505050565b5f90565b612a97612a8b565b612aa2818484612a66565b505050565b5b81811015612ac557612aba5f82612a8f565b600181019050612aa8565b5050565b601f821115612b0a57612adb816129b5565b612ae4846129c7565b81016020851015612af3578190505b612b07612aff856129c7565b830182612aa7565b50505b505050565b5f82821c905092915050565b5f612b2a5f1984600802612b0f565b1980831691505092915050565b5f612b428383612b1b565b9150826002028217905092915050565b612b5b82611f55565b67ffffffffffffffff811115612b7457612b736121f8565b5b612b7e82546127b3565b612b89828285612ac9565b5f60209050601f831160018114612bba575f8415612ba8578287015190505b612bb28582612b37565b865550612c19565b601f198416612bc8866129b5565b5f5b82811015612bef57848901518255600182019150602085019450602081019050612bca565b86831015612c0c5784890151612c08601f891682612b1b565b8355505b6001600288020188555050505b505050505050565b5f81905092915050565b5f612c3582611f55565b612c3f8185612c21565b9350612c4f818560208601611f6f565b80840191505092915050565b5f612c668284612c2b565b915081905092915050565b5f612c7b82611f55565b612c85818561270e565b9350612c95818560208601611f6f565b612c9e81611f97565b840191505092915050565b5f60e0820190508181035f830152612cc1818a612c71565b90508181036020830152612cd58189612c71565b90508181036040830152612ce98188612c71565b90508181036060830152612cfd8187612c71565b90508181036080830152612d118186612c71565b9050612d2060a083018561214b565b612d2d60c083018461214b565b98975050505050505050565b7f4e487b71000000000000000000000000000000000000000000000000000000005f52603260045260245ffd5b7f5a65726f2061646472657373206e6f7420616c6c6f77656400000000000000005f82015250565b5f612d9a60188361270e565b9150612da582612d66565b602082019050919050565b5f6020820190508181035f830152612dc781612d8e565b9050919050565b7f416c726561647920616e2061646d696e000000000000000000000000000000005f82015250565b5f612e0260108361270e565b9150612e0d82612dce565b602082019050919050565b5f6020820190508181035f830152612e2f81612df6565b9050919050565b7f4e6f207265636f72647320666f756e6420666f722074686973207461696c206e5f8201527f756d626572000000000000000000000000000000000000000000000000000000602082015250565b5f612e9060258361270e565b9150612e9b82612e36565b604082019050919050565b5f6020820190508181035f830152612ebd81612e84565b9050919050565b5f612ece82611ee8565b9150612ed983611ee8565b9250828203905081811115612ef157612ef0612941565b5b92915050565b7f52454a45435445443a20496e76616c6964206d656368616e6963206c6963656e5f8201527f7365207265666572656e63652028313420434652205061727420363529000000602082015250565b5f612f51603d8361270e565b9150612f5c82612ef7565b604082019050919050565b5f6040820190508181035f830152612f7e81612f45565b9050612f8d602083018461214b565b92915050565b5f6020820190508181035f830152612faa81612f45565b9050919050565b7f52454a45435445443a2052617720434944206973206e756c6c206f72206d616c5f8201527f666f726d65640000000000000000000000000000000000000000000000000000602082015250565b5f61300b60268361270e565b915061301682612fb1565b604082019050919050565b5f6040820190508181035f83015261303881612fff565b9050613047602083018461214b565b92915050565b5f6020820190508181035f83015261306481612fff565b9050919050565b7f52454a45435445443a2050726f63657373656420434944206973206e756c6c205f8201527f6f72206d616c666f726d65640000000000000000000000000000000000000000602082015250565b5f6130c5602c8361270e565b91506130d08261306b565b604082019050919050565b5f6040820190508181035f8301526130f2816130b9565b9050613101602083018461214b565b92915050565b5f6020820190508181035f83015261311e816130b9565b9050919050565b7f52454a45435445443a204475706c696361746520434944202d207265636f72645f8201527f20616c726561647920616e63686f726564000000000000000000000000000000602082015250565b5f61317f60318361270e565b915061318a82613125565b604082019050919050565b5f6040820190508181035f8301526131ac81613173565b90506131bb602083018461214b565b92915050565b5f6020820190508181035f8301526131d881613173565b9050919050565b7f52454a45435445443a2054696d657374616d7020766572696669636174696f6e5f8201527f206661696c656400000000000000000000000000000000000000000000000000602082015250565b5f61323960278361270e565b9150613244826131df565b604082019050919050565b5f6020820190508181035f8301526132668161322d565b9050919050565b7f52454a45435445443a2054696d657374616d70206f7574206f662076616c69645f8201527f2072616e67650000000000000000000000000000000000000000000000000000602082015250565b5f6132c760268361270e565b91506132d28261326d565b604082019050919050565b5f6020820190508181035f8301526132f4816132bb565b9050919050565b7f52454a45435445443a205461696c206e756d62657220646f6573206e6f74206d5f8201527f6565742046414120666f726d617420726571756972656d656e74730000000000602082015250565b5f613355603b8361270e565b9150613360826132fb565b604082019050919050565b5f6040820190508181035f83015261338281613349565b9050613391602083018461214b565b92915050565b5f6020820190508181035f8301526133ae81613349565b9050919050565b7f52454a45435445443a20496e697469616c207072696365206d757374206265205f8201527f67726561746572207468616e207a65726f000000000000000000000000000000602082015250565b5f61340f60318361270e565b915061341a826133b5565b604082019050919050565b5f6040820190508181035f83015261343c81613403565b905061344b602083018461214b565b92915050565b5f6020820190508181035f83015261346881613403565b9050919050565b7f52454a45435445443a20416972637261667420747970652069732072657175695f8201527f7265640000000000000000000000000000000000000000000000000000000000602082015250565b5f6134c960238361270e565b91506134d48261346f565b604082019050919050565b5f6040820190508181035f8301526134f6816134bd565b9050613505602083018461214b565b92915050565b5f6020820190508181035f830152613522816134bd565b905091905056fea2646970667358221220777072e5696bec69537cae8119cd3a0a173c642e18f46b650fa27aa9d15470d864736f6c63430008140033",
  "immutableReferences": {},
  "source": "// SPDX-License-Identifier: MIT\npragma solidity ^0.8.20;\n\n/**\n * @title  AircraftMaintenanceHistory v3\n * @notice FAA-Compliant Maintenance Record Ledger — BNB Testnet\n *\n * @dev    Implements the \"automated gatekeeper\" described in the paper:\n *         Submissions are programmatically rejected if they fail to satisfy:\n *           1. Valid 14 CFR Part 65 mechanic license reference (non-empty, min length)\n *           2. Non-null cryptographic Content Identifier (rawCid, processedCid)\n *           3. Unique File ID mapping (no duplicate rawCid on-chain)\n *           4. Timestamp verification (block.timestamp must be > 0, future timestamps rejected)\n */\ncontract AircraftMaintenanceHistory {\n\n    // ─────────────────────────────────────────────\n    // Constants\n    // ─────────────────────────────────────────────\n\n    // 14 CFR Part 65 mechanic certificate numbers follow format: e.g. \"A&P-123456\"\n    // We enforce a minimum length of 6 characters as a basic schema constraint.\n    uint256 public constant MIN_LICENSE_LENGTH = 6;\n\n    // IPFS CIDv1 base32 strings are 59 chars; CIDv0 (Qm...) are 46 chars minimum.\n    uint256 public constant MIN_CID_LENGTH = 46;\n\n    // Tail numbers: FAA format is 1–5 alphanumeric chars after \"N\", e.g. \"N550MHA\"\n    uint256 public constant MIN_TAIL_LENGTH = 3;\n\n    // ─────────────────────────────────────────────\n    // Admin\n    // ─────────────────────────────────────────────\n\n    mapping(address => bool) public isAdmin;\n\n    modifier onlyAdmin() {\n        require(isAdmin[msg.sender], \"Only admin can call this function\");\n        _;\n    }\n\n    // ─────────────────────────────────────────────\n    // Data Structure\n    // ─────────────────────────────────────────────\n\n    struct AircraftRecord {\n        uint256 fileId;\n        string  tailNumber;       // FAA tail number, e.g. \"N550MHA\"\n        string  aircraftType;     // e.g. \"B737\"\n        string  rawCid;           // IPFS CID — original FAA maintenance log\n        string  processedCid;     // IPFS CID — processed valuation CSV\n        string  mechanicLicense;  // 14 CFR Part 65 license reference\n        uint256 initialPrice;     // Aircraft value in USD\n        uint256 submittedAt;      // block.timestamp at submission\n        address submitter;        // submitting wallet\n        bool    faaValidated;     // gatekeeper passed flag\n    }\n\n    // ─────────────────────────────────────────────\n    // Storage\n    // ─────────────────────────────────────────────\n\n    uint256 private _fileIdCounter;\n\n    // fileId → record\n    mapping(uint256 => AircraftRecord) private _records;\n\n    // ─── Indexes ───\n    mapping(string  => uint256[]) private _tailIndex;       // tailNumber  → fileId[]\n    mapping(string  => uint256[]) private _typeIndex;       // aircraftType → fileId[]\n    mapping(address => uint256[]) private _submitterIndex;  // address     → fileId[]\n\n    // ─── Uniqueness guard (14 CFR constraint: no duplicate raw logs) ───\n    // rawCid → fileId that registered it first (0 = not registered)\n    mapping(string => uint256) private _cidRegistry;\n\n    // ─────────────────────────────────────────────\n    // Events\n    // ─────────────────────────────────────────────\n\n    event RecordAnchored(\n        uint256 indexed fileId,\n        string          tailNumber,\n        string          aircraftType,\n        string          rawCid,\n        string          processedCid,\n        string          mechanicLicense,\n        uint256         initialPrice,\n        address indexed submitter,\n        uint256         submittedAt\n    );\n\n    event RecordRejected(\n        address indexed submitter,\n        string          reason,\n        uint256         timestamp\n    );\n\n    event AdminAdded(address indexed admin);\n    event AdminRemoved(address indexed admin);\n\n    // ─────────────────────────────────────────────\n    // Constructor\n    // ─────────────────────────────────────────────\n\n    constructor(address[] memory _admins) {\n        require(_admins.length > 0, \"At least one admin required\");\n        for (uint256 i = 0; i < _admins.length; i++) {\n            require(_admins[i] != address(0), \"Zero address not allowed\");\n            isAdmin[_admins[i]] = true;\n            emit AdminAdded(_admins[i]);\n        }\n    }\n\n    // ─────────────────────────────────────────────\n    // Admin Management\n    // ─────────────────────────────────────────────\n\n    function addAdmin(address _admin) external onlyAdmin {\n        require(_admin != address(0), \"Zero address not allowed\");\n        require(!isAdmin[_admin], \"Already an admin\");\n        isAdmin[_admin] = true;\n        emit AdminAdded(_admin);\n    }\n\n    function removeAdmin(address _admin) external onlyAdmin {\n        require(isAdmin[_admin], \"Not an admin\");\n        require(_admin != msg.sender, \"Cannot remove yourself\");\n        isAdmin[_admin] = false;\n        emit AdminRemoved(_admin);\n    }\n\n    // ─────────────────────────────────────────────\n    // GATEKEEPER — Internal FAA Schema Validation\n    // ─────────────────────────────────────────────\n\n    /**\n     * @dev Validates all 14 CFR / schema constraints before anchoring.\n     *      Emits RecordRejected and reverts on any failure.\n     *\n     *      Constraints checked:\n     *        [1] mechanicLicense  — non-empty, >= MIN_LICENSE_LENGTH chars\n     *        [2] rawCid           — non-empty, >= MIN_CID_LENGTH chars (non-null CID)\n     *        [3] processedCid     — non-empty, >= MIN_CID_LENGTH chars\n     *        [4] rawCid uniqueness — not already registered (unique File ID mapping)\n     *        [5] timestamp        — block.timestamp > 0 and not a future spoof\n     *        [6] tailNumber       — non-empty, >= MIN_TAIL_LENGTH\n     *        [7] initialPrice     — must be > 0\n     */\n    function _faaGatekeeperCheck(\n        string memory _tail,\n        string memory _type,\n        string memory _rawCid,\n        string memory _processedCid,\n        string memory _license,\n        uint256       _price\n    ) internal {\n\n        // [1] 14 CFR Part 65 mechanic license reference\n        if (bytes(_license).length < MIN_LICENSE_LENGTH) {\n            emit RecordRejected(msg.sender, \"REJECTED: Invalid mechanic license reference (14 CFR Part 65)\", block.timestamp);\n            revert(\"REJECTED: Invalid mechanic license reference (14 CFR Part 65)\");\n        }\n\n        // [2] Non-null rawCid\n        if (bytes(_rawCid).length < MIN_CID_LENGTH) {\n            emit RecordRejected(msg.sender, \"REJECTED: Raw CID is null or malformed\", block.timestamp);\n            revert(\"REJECTED: Raw CID is null or malformed\");\n        }\n\n        // [3] Non-null processedCid\n        if (bytes(_processedCid).length < MIN_CID_LENGTH) {\n            emit RecordRejected(msg.sender, \"REJECTED: Processed CID is null or malformed\", block.timestamp);\n            revert(\"REJECTED: Processed CID is null or malformed\");\n        }\n\n        // [4] Unique File ID mapping — rawCid must not already exist on-chain\n        if (_cidRegistry[_rawCid] != 0) {\n            emit RecordRejected(msg.sender, \"REJECTED: Duplicate CID - record already anchored\", block.timestamp);\n            revert(\"REJECTED: Duplicate CID - record already anchored\");\n        }\n\n        // [5] Timestamp verification — block.timestamp is always > 0 in EVM,\n        //     but we check for suspiciously future timestamps (> 10 years from now)\n        //     as an additional guard against timestamp manipulation.\n        require(block.timestamp > 0, \"REJECTED: Timestamp verification failed\");\n        require(block.timestamp < 9999999999, \"REJECTED: Timestamp out of valid range\");\n\n        // [6] Tail number schema\n        if (bytes(_tail).length < MIN_TAIL_LENGTH) {\n            emit RecordRejected(msg.sender, \"REJECTED: Tail number does not meet FAA format requirements\", block.timestamp);\n            revert(\"REJECTED: Tail number does not meet FAA format requirements\");\n        }\n\n        // [7] Price sanity\n        if (_price == 0) {\n            emit RecordRejected(msg.sender, \"REJECTED: Initial price must be greater than zero\", block.timestamp);\n            revert(\"REJECTED: Initial price must be greater than zero\");\n        }\n\n        // [8] Aircraft type must be provided\n        if (bytes(_type).length == 0) {\n            emit RecordRejected(msg.sender, \"REJECTED: Aircraft type is required\", block.timestamp);\n            revert(\"REJECTED: Aircraft type is required\");\n        }\n    }\n\n    // ─────────────────────────────────────────────\n    // Write — Anchor Record (with gatekeeper)\n    // ─────────────────────────────────────────────\n\n    /**\n     * @notice Anchor a new FAA maintenance record on-chain.\n     *         The gatekeeper will reject submissions that fail schema constraints.\n     *\n     * @param _tailNumber      FAA aircraft tail number (e.g. \"N550MHA\")\n     * @param _aircraftType    Aircraft model (e.g. \"B737\")\n     * @param _rawCid          IPFS CID of the original maintenance log CSV\n     * @param _processedCid    IPFS CID of the processed valuation CSV\n     * @param _mechanicLicense 14 CFR Part 65 mechanic license reference\n     * @param _initialPrice    Aircraft initial price in USD\n     * @return newFileId       Auto-incremented on-chain record ID\n     */\n    function addRecord(\n        string memory _tailNumber,\n        string memory _aircraftType,\n        string memory _rawCid,\n        string memory _processedCid,\n        string memory _mechanicLicense,\n        uint256       _initialPrice\n    ) external onlyAdmin returns (uint256 newFileId) {\n\n        // ── GATEKEEPER ──────────────────────────────\n        _faaGatekeeperCheck(\n            _tailNumber, _aircraftType,\n            _rawCid, _processedCid,\n            _mechanicLicense, _initialPrice\n        );\n        // ────────────────────────────────────────────\n\n        _fileIdCounter++;\n        newFileId = _fileIdCounter;\n\n        _records[newFileId] = AircraftRecord({\n            fileId:          newFileId,\n            tailNumber:      _tailNumber,\n            aircraftType:    _aircraftType,\n            rawCid:          _rawCid,\n            processedCid:    _processedCid,\n            mechanicLicense: _mechanicLicense,\n            initialPrice:    _initialPrice,\n            submittedAt:     block.timestamp,\n            submitter:       msg.sender,\n            faaValidated:    true          // gatekeeper passed\n        });\n\n        // Register CID to prevent duplicates\n        _cidRegistry[_rawCid] = newFileId;\n\n        // Update search indexes\n        _tailIndex[_tailNumber].push(newFileId);\n        _typeIndex[_aircraftType].push(newFileId);\n        _submitterIndex[msg.sender].push(newFileId);\n\n        emit RecordAnchored(\n            newFileId, _tailNumber, _aircraftType,\n            _rawCid, _processedCid, _mechanicLicense,\n            _initialPrice, msg.sender, block.timestamp\n        );\n    }\n\n    // ─────────────────────────────────────────────\n    // Read — by fileId\n    // ─────────────────────────────────────────────\n\n    function getRecord(uint256 _fileId)\n        external view returns (AircraftRecord memory)\n    {\n        require(_records[_fileId].fileId != 0, \"Record does not exist\");\n        return _records[_fileId];\n    }\n\n    function totalRecords() external view returns (uint256) {\n        return _fileIdCounter;\n    }\n\n    // ─────────────────────────────────────────────\n    // Read — by Tail Number\n    // ─────────────────────────────────────────────\n\n    function getFileIdsByTail(string memory _tail)\n        external view returns (uint256[] memory)\n    {\n        return _tailIndex[_tail];\n    }\n\n    function getRecordsByTail(string memory _tail)\n        external view returns (AircraftRecord[] memory)\n    {\n        uint256[] memory ids = _tailIndex[_tail];\n        AircraftRecord[] memory result = new AircraftRecord[](ids.length);\n        for (uint256 i = 0; i < ids.length; i++) {\n            result[i] = _records[ids[i]];\n        }\n        return result;\n    }\n\n    function getLatestRecordByTail(string memory _tail)\n        external view returns (AircraftRecord memory)\n    {\n        uint256[] memory ids = _tailIndex[_tail];\n        require(ids.length > 0, \"No records found for this tail number\");\n        return _records[ids[ids.length - 1]];\n    }\n\n    // ─────────────────────────────────────────────\n    // Read — by Type / Submitter\n    // ─────────────────────────────────────────────\n\n    function getFileIdsByType(string memory _type)\n        external view returns (uint256[] memory)\n    {\n        return _typeIndex[_type];\n    }\n\n    function getFileIdsBySubmitter(address _addr)\n        external view returns (uint256[] memory)\n    {\n        return _submitterIndex[_addr];\n    }\n\n    // ─────────────────────────────────────────────\n    // Read — CID Uniqueness Check (callable from frontend)\n    // ─────────────────────────────────────────────\n\n    /**\n     * @notice Returns the fileId that registered a given CID (0 = not yet registered).\n     *         Frontend can call this before submission to give early feedback.\n     */\n    function getCidRegistry(string memory _rawCid)\n        external view returns (uint256)\n    {\n        return _cidRegistry[_rawCid];\n    }\n}\n",
  "sourcePath": "/Users/ssukthugg/ungr/aircrafttt/contracts/AircraftMaintenanceHistory.sol",
  "compiler": {
    "name": "solc",
    "version": "0.8.20+commit.a1b79de6.Emscripten.clang"
  },
  "schemaVersion": "3.4.16",
  "updatedAt": "2026-02-24T06:18:09.423Z",
  "networkType": "ethereum",
  "devdoc": {
    "details": "Implements the \"automated gatekeeper\" described in the paper:         Submissions are programmatically rejected if they fail to satisfy:           1. Valid 14 CFR Part 65 mechanic license reference (non-empty, min length)           2. Non-null cryptographic Content Identifier (rawCid, processedCid)           3. Unique File ID mapping (no duplicate rawCid on-chain)           4. Timestamp verification (block.timestamp must be > 0, future timestamps rejected)",
    "kind": "dev",
    "methods": {
      "addRecord(string,string,string,string,string,uint256)": {
        "params": {
          "_aircraftType": "Aircraft model (e.g. \"B737\")",
          "_initialPrice": "Aircraft initial price in USD",
          "_mechanicLicense": "14 CFR Part 65 mechanic license reference",
          "_processedCid": "IPFS CID of the processed valuation CSV",
          "_rawCid": "IPFS CID of the original maintenance log CSV",
          "_tailNumber": "FAA aircraft tail number (e.g. \"N550MHA\")"
        },
        "returns": {
          "newFileId": "      Auto-incremented on-chain record ID"
        }
      }
    },
    "title": "AircraftMaintenanceHistory v3",
    "version": 1
  },
  "userdoc": {
    "kind": "user",
    "methods": {
      "addRecord(string,string,string,string,string,uint256)": {
        "notice": "Anchor a new FAA maintenance record on-chain.         The gatekeeper will reject submissions that fail schema constraints."
      },
      "getCidRegistry(string)": {
        "notice": "Returns the fileId that registered a given CID (0 = not yet registered).         Frontend can call this before submission to give early feedback."
      }
    },
    "notice": "FAA-Compliant Maintenance Record Ledger — BNB Testnet",
    "version": 1
  }
}