{
  "contractName": "AircraftMaintenanceHistory",
  "abi": [
    {
      "inputs": [
        {
          "internalType": "address[]",
          "name": "_admins",
          "type": "address[]"
        }
      ],
      "stateMutability": "nonpayable",
      "type": "constructor"
    },
    {
      "anonymous": false,
      "inputs": [
        {
          "indexed": false,
          "internalType": "uint256",
          "name": "fileId",
          "type": "uint256"
        },
        {
          "indexed": false,
          "internalType": "string",
          "name": "ipfsHash",
          "type": "string"
        }
      ],
      "name": "FileHashRecorded",
      "type": "event"
    },
    {
      "inputs": [
        {
          "internalType": "uint256",
          "name": "",
          "type": "uint256"
        }
      ],
      "name": "fileHashes",
      "outputs": [
        {
          "internalType": "string",
          "name": "",
          "type": "string"
        }
      ],
      "stateMutability": "view",
      "type": "function",
      "constant": true
    },
    {
      "inputs": [
        {
          "internalType": "address",
          "name": "",
          "type": "address"
        }
      ],
      "name": "isAdmin",
      "outputs": [
        {
          "internalType": "bool",
          "name": "",
          "type": "bool"
        }
      ],
      "stateMutability": "view",
      "type": "function",
      "constant": true
    },
    {
      "inputs": [
        {
          "internalType": "string",
          "name": "_ipfsHash",
          "type": "string"
        }
      ],
      "name": "addFileHash",
      "outputs": [
        {
          "internalType": "uint256",
          "name": "",
          "type": "uint256"
        }
      ],
      "stateMutability": "nonpayable",
      "type": "function"
    },
    {
      "inputs": [
        {
          "internalType": "uint256",
          "name": "_fileId",
          "type": "uint256"
        }
      ],
      "name": "getFileHash",
      "outputs": [
        {
          "internalType": "string",
          "name": "",
          "type": "string"
        }
      ],
      "stateMutability": "view",
      "type": "function",
      "constant": true
    }
  ],
  "bytecode": "0x60806040525f805534801562000013575f80fd5b50604051620011203803806200112083398181016040528101906200003991906200030d565b6200004a816200005160201b60201c565b50620004af565b5f81511162000097576040517f08c379a00000000000000000000000000000000000000000000000000000000081526004016200008e90620003e0565b60405180910390fd5b5f5b81518110156200012b57600160025f848481518110620000be57620000bd62000400565b5b602002602001015173ffffffffffffffffffffffffffffffffffffffff1673ffffffffffffffffffffffffffffffffffffffff1681526020019081526020015f205f6101000a81548160ff0219169083151502179055508080620001229062000463565b91505062000099565b5050565b5f604051905090565b5f80fd5b5f80fd5b5f80fd5b5f601f19601f8301169050919050565b7f4e487b71000000000000000000000000000000000000000000000000000000005f52604160045260245ffd5b6200018c8262000144565b810181811067ffffffffffffffff82111715620001ae57620001ad62000154565b5b80604052505050565b5f620001c26200012f565b9050620001d0828262000181565b919050565b5f67ffffffffffffffff821115620001f257620001f162000154565b5b602082029050602081019050919050565b5f80fd5b5f73ffffffffffffffffffffffffffffffffffffffff82169050919050565b5f620002328262000207565b9050919050565b620002448162000226565b81146200024f575f80fd5b50565b5f81519050620002628162000239565b92915050565b5f6200027e6200027884620001d5565b620001b7565b90508083825260208201905060208402830185811115620002a457620002a362000203565b5b835b81811015620002d15780620002bc888262000252565b845260208401935050602081019050620002a6565b5050509392505050565b5f82601f830112620002f257620002f162000140565b5b81516200030484826020860162000268565b91505092915050565b5f6020828403121562000325576200032462000138565b5b5f82015167ffffffffffffffff8111156200034557620003446200013c565b5b6200035384828501620002db565b91505092915050565b5f82825260208201905092915050565b7f4174206c65617374206f6e652061646d696e20616464726573732069732072655f8201527f7175697265640000000000000000000000000000000000000000000000000000602082015250565b5f620003c86026836200035c565b9150620003d5826200036c565b604082019050919050565b5f6020820190508181035f830152620003f981620003ba565b9050919050565b7f4e487b71000000000000000000000000000000000000000000000000000000005f52603260045260245ffd5b7f4e487b71000000000000000000000000000000000000000000000000000000005f52601160045260245ffd5b5f819050919050565b5f6200046f826200045a565b91507fffffffffffffffffffffffffffffffffffffffffffffffffffffffffffffffff8203620004a457620004a36200042d565b5b600182019050919050565b610c6380620004bd5f395ff3fe608060405234801561000f575f80fd5b506004361061004a575f3560e01c806324d7806c1461004e578063ba89949e1461007e578063c110f4c9146100ae578063eb131135146100de575b5f80fd5b61006860048036038101906100639190610463565b61010e565b60405161007591906104a8565b60405180910390f35b610098600480360381019061009391906105fd565b61012b565b6040516100a5919061065c565b60405180910390f35b6100c860048036038101906100c3919061069f565b610274565b6040516100d59190610744565b60405180910390f35b6100f860048036038101906100f3919061069f565b61030f565b6040516101059190610744565b60405180910390f35b6002602052805f5260405f205f915054906101000a900460ff1681565b5f60025f3373ffffffffffffffffffffffffffffffffffffffff1673ffffffffffffffffffffffffffffffffffffffff1681526020019081526020015f205f9054906101000a900460ff166101b5576040517f08c379a00000000000000000000000000000000000000000000000000000000081526004016101ac906107d4565b60405180910390fd5b5f8251116101f8576040517f08c379a00000000000000000000000000000000000000000000000000000000081526004016101ef9061083c565b60405180910390fd5b5f8081548092919061020990610887565b91905055505f805490508260015f8381526020019081526020015f2090816102319190610ac8565b507fdaa05d02f395cba01ddf05bb54952e079b7a92362579e3ad67dbbcb3b2ec21198184604051610263929190610b97565b60405180910390a180915050919050565b6001602052805f5260405f205f915090508054610290906108fb565b80601f01602080910402602001604051908101604052809291908181526020018280546102bc906108fb565b80156103075780601f106102de57610100808354040283529160200191610307565b820191905f5260205f20905b8154815290600101906020018083116102ea57829003601f168201915b505050505081565b60605f60015f8481526020019081526020015f20805461032e906108fb565b80601f016020809104026020016040519081016040528092919081815260200182805461035a906108fb565b80156103a55780601f1061037c576101008083540402835291602001916103a5565b820191905f5260205f20905b81548152906001019060200180831161038857829003601f168201915b505050505090505f8151116103ef576040517f08c379a00000000000000000000000000000000000000000000000000000000081526004016103e690610c0f565b60405180910390fd5b80915050919050565b5f604051905090565b5f80fd5b5f80fd5b5f73ffffffffffffffffffffffffffffffffffffffff82169050919050565b5f61043282610409565b9050919050565b61044281610428565b811461044c575f80fd5b50565b5f8135905061045d81610439565b92915050565b5f6020828403121561047857610477610401565b5b5f6104858482850161044f565b91505092915050565b5f8115159050919050565b6104a28161048e565b82525050565b5f6020820190506104bb5f830184610499565b92915050565b5f80fd5b5f80fd5b5f601f19601f8301169050919050565b7f4e487b71000000000000000000000000000000000000000000000000000000005f52604160045260245ffd5b61050f826104c9565b810181811067ffffffffffffffff8211171561052e5761052d6104d9565b5b80604052505050565b5f6105406103f8565b905061054c8282610506565b919050565b5f67ffffffffffffffff82111561056b5761056a6104d9565b5b610574826104c9565b9050602081019050919050565b828183375f83830152505050565b5f6105a161059c84610551565b610537565b9050828152602081018484840111156105bd576105bc6104c5565b5b6105c8848285610581565b509392505050565b5f82601f8301126105e4576105e36104c1565b5b81356105f484826020860161058f565b91505092915050565b5f6020828403121561061257610611610401565b5b5f82013567ffffffffffffffff81111561062f5761062e610405565b5b61063b848285016105d0565b91505092915050565b5f819050919050565b61065681610644565b82525050565b5f60208201905061066f5f83018461064d565b92915050565b61067e81610644565b8114610688575f80fd5b50565b5f8135905061069981610675565b92915050565b5f602082840312156106b4576106b3610401565b5b5f6106c18482850161068b565b91505092915050565b5f81519050919050565b5f82825260208201905092915050565b5f5b838110156107015780820151818401526020810190506106e6565b5f8484015250505050565b5f610716826106ca565b61072081856106d4565b93506107308185602086016106e4565b610739816104c9565b840191505092915050565b5f6020820190508181035f83015261075c818461070c565b905092915050565b7f4f6e6c792061646d696e2063616e2063616c6c20746869732066756e6374696f5f8201527f6e00000000000000000000000000000000000000000000000000000000000000602082015250565b5f6107be6021836106d4565b91506107c982610764565b604082019050919050565b5f6020820190508181035f8301526107eb816107b2565b9050919050565b7f4950465320486173682063616e6e6f7420626520656d707479000000000000005f82015250565b5f6108266019836106d4565b9150610831826107f2565b602082019050919050565b5f6020820190508181035f8301526108538161081a565b9050919050565b7f4e487b71000000000000000000000000000000000000000000000000000000005f52601160045260245ffd5b5f61089182610644565b91507fffffffffffffffffffffffffffffffffffffffffffffffffffffffffffffffff82036108c3576108c261085a565b5b600182019050919050565b7f4e487b71000000000000000000000000000000000000000000000000000000005f52602260045260245ffd5b5f600282049050600182168061091257607f821691505b602082108103610925576109246108ce565b5b50919050565b5f819050815f5260205f209050919050565b5f6020601f8301049050919050565b5f82821b905092915050565b5f600883026109877fffffffffffffffffffffffffffffffffffffffffffffffffffffffffffffffff8261094c565b610991868361094c565b95508019841693508086168417925050509392505050565b5f819050919050565b5f6109cc6109c76109c284610644565b6109a9565b610644565b9050919050565b5f819050919050565b6109e5836109b2565b6109f96109f1826109d3565b848454610958565b825550505050565b5f90565b610a0d610a01565b610a188184846109dc565b505050565b5b81811015610a3b57610a305f82610a05565b600181019050610a1e565b5050565b601f821115610a8057610a518161092b565b610a5a8461093d565b81016020851015610a69578190505b610a7d610a758561093d565b830182610a1d565b50505b505050565b5f82821c905092915050565b5f610aa05f1984600802610a85565b1980831691505092915050565b5f610ab88383610a91565b9150826002028217905092915050565b610ad1826106ca565b67ffffffffffffffff811115610aea57610ae96104d9565b5b610af482546108fb565b610aff828285610a3f565b5f60209050601f831160018114610b30575f8415610b1e578287015190505b610b288582610aad565b865550610b8f565b601f198416610b3e8661092b565b5f5b82811015610b6557848901518255600182019150602085019450602081019050610b40565b86831015610b825784890151610b7e601f891682610a91565b8355505b6001600288020188555050505b505050505050565b5f604082019050610baa5f83018561064d565b8181036020830152610bbc818461070c565b90509392505050565b7f46696c6520494420646f6573206e6f74206578697374000000000000000000005f82015250565b5f610bf96016836106d4565b9150610c0482610bc5565b602082019050919050565b5f6020820190508181035f830152610c2681610bed565b905091905056fea26469706673582212205d87bf47311e66567f7d0dabb48c5ccc53b22ced8a6379d0280dfb4f9a72c9cc64736f6c63430008140033",
  "immutableReferences": {},
  "source": "// SPDX-License-Identifier: MIT\npragma solidity ^0.8.13;\n\ncontract AircraftMaintenanceHistory {\n    \n    uint256 private fileIdCounter = 0;\n    mapping(uint256 => string) public fileHashes;\n    // :     Admin   Checksum  .\n    mapping(address => bool) public isAdmin; \n\n    event FileHashRecorded(uint256 fileId, string ipfsHash);\n\n    constructor(address[] memory _admins) {\n        setAdmins(_admins);\n    }\n\n    modifier onlyAdmin() {\n        require(isAdmin[msg.sender], \"Only admin can call this function\");\n        _;\n    }\n\n    // --- Admin Management Logic ---\n    function setAdmins(address[] memory _admins) private {\n        require(_admins.length > 0, \"At least one admin address is required\");\n        //     Admin  .\n        for (uint256 i = 0; i < _admins.length; i++) {\n            isAdmin[_admins[i]] = true;\n        }\n    }\n\n    function addFileHash(string memory _ipfsHash) public onlyAdmin returns (uint256) {\n        require(bytes(_ipfsHash).length > 0, \"IPFS Hash cannot be empty\");\n        fileIdCounter++; \n        uint256 newFileId = fileIdCounter;\n        fileHashes[newFileId] = _ipfsHash;\n        emit FileHashRecorded(newFileId, _ipfsHash);\n        return newFileId;\n    }\n\n    function getFileHash(uint256 _fileId) public view returns (string memory) {\n        string memory ipfsHash = fileHashes[_fileId];\n        require(bytes(ipfsHash).length > 0, \"File ID does not exist\");\n        return ipfsHash;\n    }\n}",
  "sourcePath": "/Users/ssukthugg/ungr/aircrafttt/contracts/AircraftMaintenanceHistory.sol",
  "compiler": {
    "name": "solc",
    "version": "0.8.20+commit.a1b79de6.Emscripten.clang"
  },
  "schemaVersion": "3.4.16",
  "updatedAt": "2025-11-14T03:38:53.646Z",
  "networkType": "ethereum",
  "devdoc": {
    "kind": "dev",
    "methods": {},
    "version": 1
  },
  "userdoc": {
    "kind": "user",
    "methods": {},
    "version": 1
  }
}